S02B0000463A5C4B4C343650726F6A6563745C4D4B4C34365A345F426F6F744C6F616465725C776F726B73709C
S113000000600020D500000043010000450100000D
S113001000000000000000000000000000000000DC
S11300200000000000000000000000004701000084
S1130030000000000000000049010000190E00004B
S11300404F010000570100005F010000670100003C
S11300506F010000770100007F01000087010000AC
S11300608F010000970100009F010000A70100001C
S1130070890A0000B7010000BF010000C7010000A9
S1130080CF010000D7010000DF010000E7010000FC
S1130090EF010000F7010000FF010000070200006B
S11300A00F020000170200001F02000027020000D8
S11300B02F020000370200003F0200004702000048
S11300C0F827000080E0FF1F0000000080E0FF1F11
S11300D09801000010B572B600F05AFF0D4B07E00E
S11300E0186859681C000C349A6800F019F8230049
S11300F0094A9342F4D306E018681C00083459688E
S113010000F017F82300054A9342F5D362B602F0D3
S1130110F1F9FEE7C0000000CC000000D4000000AC
S113012010B5002302E010C810C104339342FAD37F
S113013010BD002302E0002204C004338B42FAD332
S11301407047FEE7FEE7FEE7FEE7FEE7FEE710B5D1
S1130150FFF7FCFF10BD10B5FFF7F8FF10BD10B599
S1130160FFF7F4FF10BD10B5FFF7F0FF10BD10B599
S1130170FFF7ECFF10BD10B5FFF7E8FF10BD10B599
S1130180FFF7E4FF10BD10B5FFF7E0FF10BD10B599
S1130190FFF7DCFF10BD10B5FFF7D8FF10BD10B599
S11301A0FFF7D4FF10BD10B5FFF7D0FF10BD10B599
S11301B0FFF7CCFF10BD10B5FFF7C8FF10BD10B599
S11301C0FFF7C4FF10BD10B5FFF7C0FF10BD10B599
S11301D0FFF7BCFF10BD10B5FFF7B8FF10BD10B599
S11301E0FFF7B4FF10BD10B5FFF7B0FF10BD10B599
S11301F0FFF7ACFF10BD10B5FFF7A8FF10BD10B599
S1130200FFF7A4FF10BD10B5FFF7A0FF10BD10B598
S1130210FFF79CFF10BD10B5FFF798FF10BD10B598
S1130220FFF794FF10BD10B5FFF790FF10BD10B598
S1130230FFF78CFF10BD10B5FFF788FF10BD10B598
S1130240FFF784FF10BD10B5FFF780FF10BDFFFF5F
S1130250FFFFFFFFFFFFFFFFFFFFFFFFFFFFFFFFAA
S1130260FFFFFFFFFFFFFFFFFFFFFFFFFFFFFFFF9A
S1130270FFFFFFFFFFFFFFFFFFFFFFFFFFFFFFFF8A
S1130280FFFFFFFFFFFFFFFFFFFFFFFFFFFFFFFF7A
S1130290FFFFFFFFFFFFFFFFFFFFFFFFFFFFFFFF6A
S11302A0FFFFFFFFFFFFFFFFFFFFFFFFFFFFFFFF5A
S11302B0FFFFFFFFFFFFFFFFFFFFFFFFFFFFFFFF4A
S11302C0FFFFFFFFFFFFFFFFFFFFFFFFFFFFFFFF3A
S11302D0FFFFFFFFFFFFFFFFFFFFFFFFFFFFFFFF2A
S11302E0FFFFFFFFFFFFFFFFFFFFFFFFFFFFFFFF1A
S11302F0FFFFFFFFFFFFFFFFFFFFFFFFFFFFFFFF0A
S1130300FFFFFFFFFFFFFFFFFFFFFFFFFFFFFFFFF9
S1130310FFFFFFFFFFFFFFFFFFFFFFFFFFFFFFFFE9
S1130320FFFFFFFFFFFFFFFFFFFFFFFFFFFFFFFFD9
S1130330FFFFFFFFFFFFFFFFFFFFFFFFFFFFFFFFC9
S1130340FFFFFFFFFFFFFFFFFFFFFFFFFFFFFFFFB9
S1130350FFFFFFFFFFFFFFFFFFFFFFFFFFFFFFFFA9
S1130360FFFFFFFFFFFFFFFFFFFFFFFFFFFFFFFF99
S1130370FFFFFFFFFFFFFFFFFFFFFFFFFFFFFFFF89
S1130380FFFFFFFFFFFFFFFFFFFFFFFFFFFFFFFF79
S1130390FFFFFFFFFFFFFFFFFFFFFFFFFFFFFFFF69
S11303A0FFFFFFFFFFFFFFFFFFFFFFFFFFFFFFFF59
S11303B0FFFFFFFFFFFFFFFFFFFFFFFFFFFFFFFF49
S11303C0FFFFFFFFFFFFFFFFFFFFFFFFFFFFFFFF39
S11303D0FFFFFFFFFFFFFFFFFFFFFFFFFFFFFFFF29
S11303E0FFFFFFFFFFFFFFFFFFFFFFFFFFFFFFFF19
S11303F0FFFFFFFFFFFFFFFFFFFFFFFFFFFFFFFF09
S1130400FFFFFFFFFFFFFFFFFFFFFFFFFEFFFFFFF9
S113041080B584B000AF786039600F23FB180022E8
S11304201A700FE00F203B181B783A68D2183B185B
S11304301B787968CB1812781A703B181A783B1815
S113044001321A70054B1B780F22BA1812789A429F
S1130450E8D3C046C046BD4604B080BD14E2FF1FC9
S113046080B500AF0DE00B4B1A680B4B1A600A4BBA
S11304701B685A68074B1A60074B1B68180002F088
S113048043F8044B1B68002BEDD1C046C046BD4663
S113049080BDC04680E0FF1F84E0FF1F80B582B0AE
S11304A000AF0200FB1D1A70FFF7DAFF034BFA1DC1
S11304B012781A70C046BD4602B080BD14E2FF1F18
S11304C080B584B000AF7860082000F06FFD0300B1
S11304D0BB60164B1B78180000F068FD0200BB6877
S11304E01A60BB681B687A6811001800FFF790FF58
S11304F0BB6800225A600E4B1B68002B03D10C4BC7
S1130500BA681A600DE00A4B1B68FB6002E0FB68E6
S11305105B68FB60FB685B68002BF8D1FB68BA681A
S11305205A60C046BD4604B080BDC04614E2FF1FF9
S113053080E0FF1F80B582B000AF0F4B1B68002B1B
S113054002D100237B6011E00B4B1A680B4B1A603D
S11305500A4B1B681B687B60084B1B685A68064B78
S11305601A60064B1B68180001F0CEFF7B68180068
S1130570BD4602B080BDC04680E0FF1F84E0FF1F7F
S1130580F0B587B000AFF8607A600B23FB180A1C43
S11305901A701723FB1800221A707B6800221A7045
S11305A01623FB1800221A7052E01623FB181B783E
S11305B0FA68D3181B7815257C19180001F048FF38
S11305C0030023707B191B78FF2B04D11723FB181E
S11305D001221A7044E01523FB181B78180002F05E
S11305E01EF804000D000B23FB181A781626BB19FD
S11305F01B78D31A013B180002F011F802000B001B
S113060000201B4900F07EFD02000B0020002900A1
S113061001F0D6FA02000B0014001D007B681B7861
S1130620180001F0FCFF02000B002000290001F07B
S11306302DFD02000B001000190001F0F7FD03006E
S1130640DAB27B681A70BB191A78BB1901321A70B6
S11306501623FA180B23FB1812781B789A42A4D39A
S11306601723FB181B781800BD4607B0F0BDC04621
S11306700000304080B584B000AF0200FB1D1A704A
S11306800F23FB1800221A70FB1D1B78092B36D888
S11306909A00214BD3181B689F460F23FB18042292
S11306A01A7031E00F23FB1804221A702CE00F2378
S11306B0FB1806221A7027E00F23FB1808221A7071
S11306C022E00F23FB1800221A701DE00F23FB18F1
S11306D004221A7018E00F23FB1806221A7013E084
S11306E00F23FB1808221A700EE00F23FB180422B4
S11306F01A7009E00F23FB1804221A7004E00F2378
S1130700FB18FF221A70C0460F23FB181B78180031
S1130710BD4604B080BDC0468027000080B584B0CB
S113072000AF0200FB1D1A70BB1D0A1C1A700F23B8
S1130730FB18254A52781A70234B5B68BB600E2362
S1130740FB1800221A7010E0BB68D9B20F22BB1844
S1130750BA1812788A181A70BB681B0ABB600E217B
S11307607B181A787B1801321A70FB1D1B785B0802
S1130770DBB20E217A1812789A42E5D37B18002254
S11307801A7010E00E203B181B780F4AD318197A00
S11307900F22BB18BA1812788A181A703B181A78E4
S11307A03B1801321A70BB1D1B785B08DBB20E22AA
S11307B0BA1812789A42E5D30F23FB181B78180055
S11307C0BD4604B080BDC04688E0FF1FF0B585B0CB
S11307D000AF786008001100FB1C021C1A70BB1CDF
S11307E00A1C1A700F23FB1800221A700E23FB1820
S11307F000221A700D23FB1800221A708F4B1B78ED
S1130800072B00D90FE19A008D4BD3181B689F4624
S11308107B681B78BA1C12789A4204D10F23FB1808
S113082007221A70FFE07B681B78532B04D00F2338
S1130830FB1801221A70F6E07B6801330F22BC1802
S1130840804A01211800FFF79BFE030023707D4BB3
S11308501B78092B05D87B4B1B78042B01D0012274
S113086000E000220B217B181A707B181B78002BE8
S113087004D00F23FB181B78012B04D10F23FB1882
S113088002221A70CFE06F4B1B780E22BC1818009E
S1130890FFF7F0FE030023707B6802330F257C19F9
S11308A0694A02211800FFF76BFE03002370654BB1
S11308B05B7802229A429B415B42DAB20A217B189E
S11308C01A707B181B78002B03D07B191B78012B23
S11308D004D10F23FB1803221A70A4E0594B5B7850
S11308E0DB18DAB20E23FB181B78D31ADAB20D2305
S11308F0FB18023A1A707B68181D0F257C19534A9D
S11309000E23FB181B781900FFF73AFE030023702F
S11309104C4B5A684E4B1A607B191B78002B03D141
S11309207B191B78012B04D10F23FB1804221A70A6
S113093079E00C23FB1800221A7029E00E23FB181F
S11309401B781A1D0C257B191B785B00D3181A0021
S11309507B6898187B191B7808331A00394BD31815
S11309600F22BC181A000221FFF70AFE03002370AD
S11309707B191A787B191B7832498A18117A344A00
S1130980D3180A1C1A717B191A787B1901321A7050
S11309900C23FB181B78272BD0D90F22BB181B78EC
S11309A0002B03D1BB181B78012B04D10F23FB1898
S11309B005221A7037E00E257B191B781A1D0D26A7
S11309C0BB191B78D3181A007B689B180F22BC181C
S11309D0204A02211800FFF7D3FD03002370BB193E
S11309E01A787B191B7811001800FFF797FE030093
S11309F01900144B30229B5C0B43DBB2FF3B5A4281
S1130A005341DAB209217B181A707B181B78002B2A
S1130A1004D00F22BB181B78012B04D10F23FB1821
S1130A2006221A70C0460A4B0F22BA182C211278DB
S1130A305A54074B1800BD4605B0F0BD15E2FF1F20
S1130A40A827000088E0FF1F89E0FF1F8CE0FF1F3C
S1130A50BCE0FF1FB8E0FF1F80B582B000AFFFF716
S1130A6069FD03007B607B68002BF8D07B680A2259
S1130A7060211800FFF7AAFE03003B60014B3A68AF
S1130A801A60ECE7ECE0FF1FB0B500AF174B1B7822
S1130A901C0000F06BFA03001A00154B1A55134B97
S1130AA01B781A00124B9B5C0A2B14D10F4B1B783A
S1130AB0013B0F4AD35C0D2B0DD10E4B1B78013338
S1130AC0DAB20C4B1A70094B00221A70084B18004A
S1130AD0FFF7F6FC06E0054B1B780133DAB2034B53
S1130AE01A70C046C046BD46B0BDC04616E2FF1FE0
S1130AF0F0E0FF1F17E2FF1F90B587B000AF0020A2
S1130B0000F048F810243B19180008231A000021AB
S1130B1001F0F6FC21007B181C4A1A607B180122A4
S1130B201A717B1803225A717B1802229A717B185E
S1130B30180000F045F908243B19180008231A008E
S1130B40002101F0DDFC21007B18104A1A607B189B
S1130B5002221A717B1803225A717B1802229A719D
S1130B607B18180000F02CF9082000F013F80C2072
S1130B7000F010F93B1D064A12681A603B1D18006C
S1130B8000F054F9C046BD4607B090BD0090044043
S1130B90C827000080B582B000AF0200FB1D1A70A8
S1130BA0FB1D1B78082B00D9DDE09A00704BD3188D
S1130BB01B689F466F4A704BD3586E49802292003F
S1130BC013436D4A8B50CEE06A4A6B4BD358694944
S1130BD08022D2001343684A8B50C4E0654A664BB6
S1130BE0D3586449802212011343634A8B50BAE0FC
S1130BF0604A614BD3585F498022520113435E4AD5
S1130C008B50B0E05B4A5C4BD3585A498022920126
S1130C101343594A8B50A6E0564A584BD35855496A
S1130C20802212051343554A8B509CE0514A534B82
S1130C30D3585049802212041343504A8B5092E0F7
S1130C404F4B1B78DBB24E4A02218B43DBB213704D
S1130C504B4B1B78DBB24A4A02210B43DBB21370C5
S1130C60444A464BD3584349802252041343434ACF
S1130C708B50404A434BD3583E49434A1340414A60
S1130C808B503C4A3F4BD3583A49C02292041343F9
S1130C903C4A8B503A4B1B7ADBB2394A0E218B43C8
S1130CA0DBB21372364B1B7ADBB2354A04210B4399
S1130CB0DBB21372324B5B78DBB2314A01218B43D6
S1130CC0DBB253702E4B5B78DBB22D4A01210B4310
S1130CD0DBB2537047E02A4B1B78DBB2284A02216F
S1130CE08B43DBB21370264B1B78DBB2244A022100
S1130CF00B43DBB213701F4A244BD3581D49802287
S1130D00D2001343214A8B501A4A1E4BD358194917
S1130D101F4A13401B4A8B50164A1A4BD358154985
S1130D20C02212051343174A8B50154B1B7ADBB2B2
S1130D30134A0E218B43DBB21372114A104B127A01
S1130D40D2B21A720E4B5B78DBB20D4A01218B438F
S1130D50DBB253700A4B5B78DBB2094A01210B43C7
S1130D60DBB25370C046C046BD4602B080BDC0462B
S1130D70CC27000000700440381000003C10000034
S1130D800040064004100000FFFFFFFC3410000088
S1130D90FFFFFFF380B582B000AF0200FB1D1A70A5
S1130DA0064B1968FB1D1B7801229A40034B0A432A
S1130DB01A60C046BD4602B080BDC04600E100E0F6
S1130DC080B582B000AF78607B681B687A6812795E
S1130DD09200D2587B681B687968097908000D492C
S1130DE011408200D1507B681B687A6812799200A6
S1130DF0D1587B689B791A02E023DB001A407B6898
S1130E001B687868007911438200D150C046BD4602
S1130E1002B080BDFFF8FFFF80B500AF024B1B6836
S1130E209847C046BD4680BD50E1FF1F90B585B0D0
S1130E3000AF78602B4BDB78DBB22A4A0C218B4362
S1130E40DBB2D370274B9B7ADBB21F229343DAB217
S1130E507B689B78013BDBB222491343DBB28B7284
S1130E607B689B781A007B681B88534319001E48D3
S1130E7001F06CFB03001A000E217B181A807B180A
S1130E801B881B0A9AB20D203B181A700C243B19BC
S1130E907A1812881A70134B1B78DBB2114A1F217F
S1130EA08B43DBB213700F4B1B78DAB23B181B7801
S1130EB01F210B40DBB20B491343DBB20B70094B10
S1130EC05B78084B00225A70064B5B78DAB205490E
S1130ED03B191B781343DBB24B70C046BD4605B0CB
S1130EE090BDC04600A0064000093D0080B500AF9B
S1130EF0094BDB78DBB2084A08218B43DBB2D370A1
S1130F00054BDB78DBB2044A08210B43DBB2D37018
S1130F10C046BD4680BDC04600A0064080B500AFB7
S1130F20114BDB78DBB2104A04218B43DBB2D37064
S1130F300D4BDB78DBB20C4A04210B43DBB2D370DC
S1130F40094BDB78DBB2084A20218B43DBB2D37038
S1130F50054BDB78DBB2044A20210B43DBB2D370B0
S1130F60C046BD4680BDC04600A0064080B500AF67
S1130F70C046064B1B79DBB21A0020231340F8D07D
S1130F80024BDB79DBB21800BD4680BD00A00640F1
S1130F9080B500AF044A88235B010021D15001F0E1
S1130FA0A4FAC046BD4680BD00700440F8B50027D1
S1130FB0344EC21C34689508B84212D080235B05B5
S1130FC09C46002C0FD10C3000F068FB431C08D069
S1130FD080239B05036045608460002F50D13060FE
S1130FE03EE00020F8BD236863452DD1A168636805
S1130FF0002909D00F6867451ED14F680333FB18D9
S113100063608B68A360F1E7AB4220DA2E000A36F6
S1131010B3422AD980208005206003262000B243F1
S11310200C3082186560A26080245B1B6405033B5E
S1131030146053609160D5E7AB4213DBEF1CBB42F5
S11310400ADD07379F42E5D32700A468B9E7EE1C01
S11310509E4201DA0736DBE780239B0523602000EC
S11310600C30BFE72F000A37ECE79B00C01A00F0F2
S113107015FB0130B5D080239B0523606560EEE746
S1131080B860EDE758E1FF1F70B5184C184922000D
S1131090002000F025FB802380225B00002120003B
S11310A0D20000F0D5FA134C134D22002900012080
S11310B000F016FB802380225B0000212000D20078
S11310C000F0C6FA0D4B1B68022B0DDD0C4C2900F9
S11310D02200022000F004FB802380220021200053
S11310E05B00D20000F0B4FA70BDC04660E1FF1F9F
S11310F0F42700009CE1FF1FF6270000F027000002
S1131100D8E1FF1FF0B58FB00092019304000D00E9
S1131110009801990022D64B01F0A4F8002826D1AA
S1131120002200232000290001F026F9002863D0C2
S1131130002200232000290001F094F80022002856
S113114019D000980199002301F016F9002800D164
S11311508AE1009801992122C64B1A6000220023DB
S113116001F080F8002800D046E20024C24D20009F
S113117029000FB0F0BDC14B0098019901F092F81D
S1131180002814D100980199BD4ABE4B01F0C4F85F
S113119000280CD10098019901F020F8060001F014
S11311A03EFA009A019B01F05DF8002803D1212248
S11311B0B04B1A60D9E7802109066B181D00012382
S11311C01E4005968023009801990022DB0501F05A
S11311D049F8002812D020002900AB4AAB4B01F09B
S11311E061F800280AD022002B002000290000F01A
S11311F0E7FC04000D00BAE70590E3E720002900AE
S11312000DAA00F0F5FAA24BA24A0F00060001F065
S1131210B3F8431E9841C4009F4B251DE90059189B
S113122006933200086849683B0001F0DDF80028A5
S113123000D12500AB1CD9000293069B320059183B
S1131240086849683B0001F0CFF8002800D10295F6
S1131250029A914B0132D2009B181C685D683000E1
S113126022002B00390000F027FE029A8B4B52100B
S1131270D2009B181A685B6800F01EFE00220690DC
S11312800791874B3000390000F09AFC00220600D9
S11312900F0020002900824B00F092FC02000B009A
S11312A03000390000F0F2FE02000B0006980799A6
S11312B000F050FD02000B0004000D0000F080FC63
S11312C006000F00774A784B00F07AFC774A784B97
S11312D000F0DCFE32003B0000F072FC754A764BF5
S11312E000F0D4FE32003B0000F06AFC734A744BF9
S11312F000F0CCFE32003B0000F062FC22002B0028
S113130000F05EFC6F4A704B06000F0000F058FCC2
S1131310089009910D98029B0001C01A013801F050
S11313207EF90022694B00F04BFC0022684B0290CE
S113133003910098019900F043FC00F04FFF01F085
S11313406EF90022614B00F03BFC5E4A0690079167
S11313505D4B2000290000F033FC32003B000A9072
S11313600B910898099900F091FE02000B000A986D
S11313700B9900F08BFE22002B0000F087FE009AF0
S1131380019B00F01DFC069A079B04000D000098C9
S1131390019900F091FD029A039B00F011FC0200F8
S11313A00B002000290000F071FE0022484B0600CB
S11313B00F0000F005FC00F011FF01F030F90022ED
S11313C0424B00F0FDFB04000D0002000B00300056
S11313D0390000F071FD069A079B00900191029874
S11313E0039900F0EDFB22002B0000F04FFE0022D9
S11313F0374B04000D0000F0E3FB00F0EFFE01F0BA
S11314000EF90022314B00F0DBFB060002000B005A
S11314100F002000290000F04FFD009A019B00F00E
S113142035FE00222A4B0090019100F0C9FB00F028
S1131430D5FE01F0F4F80022244B00F0C1FB0200B9
S11314400B0004000D003000390000F01FFE204B9B
S1131450002200F0B5FB00F0C1FE1E4B06009842CE
S11314603ADA2222034B1A60002400257FE6C046A4
S11314700000F03F5CE1FF1F0000F0FF0000E0C14E
S11314800000C0FFFFFFDF41408CB5781DAF15445D
S11314909EA0E63FCD3B7F66F8260000B8260000FC
S11314A00000E03F28FC4ADBFD783C3FAC8D272E52
S11314B02449623F0E089E999999893F4D55555587
S11314C05555B53FF80BAE941D55DC3F0000B03FB9
S11314D00000304020C0FFFF2200009801992B003B
S11314E000F0EAFC0022002304000D0000F014FFC9
S11314F0002808D0200029000022414B00F0DCFC29
S113150004000D000136002E61DA0F23F7171F4087
S1131510BF193B110093009A3A4B1201921BD2005F
S11315209B181E685F68384A384B2000290000F079
S113153047FB374A374B00F0A9FD22002B0000F08F
S11315403FFB354A354B00F0A1FD22002B0000F093
S113155037FB334A334B00F099FD22002B0000F097
S11315602FFB314A314B00F091FD22002B0000F09B
S113157027FB2F4A2F4B00F089FD22002B0000F09F
S11315801FFB2D4A2D4B00F081FD22002B0000F0A3
S113159017FB32003B0000F013FB0B000200390084
S11315A0300000F073FD0DAA00F022F9009B0D9AA3
S11315B09A188023DB009A420CDD2222204B1A6009
S11315C0059B002B00D0D0E500241E4DCFE537113C
S11315D07B1C9FE71C4B9A4200DA42E700F0E4F9D7
S11315E0059B04000D00002B00D1C0E580210906F5
S11315F06B1804001D00BAE50024144DB7E5C0467D
S11316000000B03FF826000080CC92E3DD4EEF3EB0
S1131610744C38E07A2F243F9FCDD7187ED8553F9D
S1131620981D136EABB2833F6D0203D7086BAC3FBA
S1131630CEC482FFBDBFCE3FEF39FAFE422EE63F55
S11316405CE1FF1F0000F07F03FCFFFF0000F03FA0
S1131650F0B5C56804000120AE070CD080208000DE
S1131660824213D08020C000824205D080204000F6
S113167082420BD0FF38F0BD2100012324311543F1
S1131680002021612160E361E560F4E7024F5E1E02
S11316900120BE42F3D9EEE7FEFFFF0070B50D4D09
S11316A004002B68002B01D10B4B2B6003232E6805
S11316B003349C433419200000F0D0F9002802D1EF
S11316C02C60300070BD0C220126044B76421A6057
S11316D0F7E7C04654E1FF1F18E2FF1F5CE1FF1F5C
S11316E0F7B50D0001901000140000F033F82B78CA
S11316F0722B1CD0772B1DD0612B26D1144A593B59
S11317000220691C032784460426012508782B2817
S113171013D0622816D0E260019A62611B0704D5D7
S113172002220021200000F0A3F82000FEBD0023C7
S11317300122E5E704230222E2E760463A43034339
S11317400131E3E732432B43FAE70024EDE7C046D7
S113175002800000F0B5C56804004769066989B0D5
S1131760AB0720D02B0716D400F022F8380000F085
S11317708EFF2B0502D5300000F0C6FE0B4BAD0DDD
S1131780AD059D4207D120226846216A00F08EFFF4
S1131790684600F0CFFE3C220021200000F0B0FE9D
S11317A0002009B0F0BD01204042FAE7000080ADFE
S11317B0F8B5002812D000F05DF905002800F8BD46
S11317C038006043084BC01800F054F9002801D0D9
S11317D001256D420134A642F2DCEFE7034B04001D
S11317E005003C271E68F6E760E1FF1FF0270000B4
S11317F0F7B500230192002204000D0000F032FD31
S1131800002806D0002300200021019A136003B0B1
S1131810F0BD144A6B0094465B0D200029009C44E3
S1131820002B16D127002A03120BFE0F530033435B
S113183080261B031B0B7F003603B24204D2012215
S1131840524294441A00F0E72A0D12051A4311007B
S113185038006346019A1360034B044A0B401A4351
S11318601100D4E702FCFFFFFFFF0F800000E03F00
S1131870F7B54369C6680193364B04000D00009226
S11318801E420BD0019800F008FF071E06D1009BF2
S1131890012B06D0022B2DD0002B06D002273800B6
S11318A0FEBD200000F05AF82D18002DF6DBB3041D
S11318B004D52368E26A9A4200D2E362A369AB4288
S11318C00EDCE16A22688A4200D20A002169D0183B
S11318D00091401AA84203DB206B1918A94228DCA6
S11318E020231E430023A562A36063601A4B1E409D
S11318F0E660D4E7019800F0CDFEE268002804DA3F
S1131900802313430127E360C9E7E16A236899420E
S113191000D90B00A1695B1821695B1A920603D5F3
S1131920A26A934200DA1300834200DA0300ED183E
S1131930BBE7EB1AB50701D5181AA060F00703D569
S11319400099521A9A1A6260009AD11820232160D1
S11319509E43CBE703001000BFCFF7FFC16802002E
S11319608B0705D1212201200E4B40421A6070479B
S113197020230B4009030AD5002B02D0806A0138CA
S1131980F5E793690068C0181369C01AF7E7002BDC
S113199001D0806AEBE70368816900695B18181A53
S11319A0E5E7C0465CE1FF1F70B500231600002286
S11319B004000D0000F056FC002802D00020002195
S11319C070BD6A00520D0A4B921920009A4205DD3F
S11319D02222084B002008491A60F1E7002AEDDDB5
S11319E0064B520552082B4013431900E8E7C04642
S11319F0FE0700005CE1FF1F0000F07FFFFF0F8087
S1131A000300032110B51A000B4219D1114C1368BD
S1131A10114959189943214219D0DCB2511C002CA8
S1131A200BD0FF242402911C234206D0FF21090479
S1131A300B40591E8B41D318D91C0130081A05E0FC
S1131A4001335C1E2478002CDDD1101A10BD043241
S1131A50DDE7C04680808080FFFEFEFE0300044870
S1131A60002803D000228342524110007047C04630
S1131A7018EAFF1FC36870B503221E000400164055
S1131A80134211D09B0611D5856A00F079F8E368FA
S1131A90094A20001340E36000F010F80022060019
S1131AA029002000FFF7E4FE300070BD836905685B
S1131AB0ED180369ED1AEAE7FFCFFFFF70B50400E4
S1131AC0134AE36805691A400168C06AE260822229
S1131AD01A40022A02D00120404270BDDB030CD51B
S1131AE0814200D201008D4209D10023094AA3603A
S1131AF0E368E56213402560E3600020EDE722001F
S1131B002800491B00F008F80028EED0E3E7C0469F
S1131B10FFFFF7FFFFFFFEFFF7B5D5680F001400C6
S1131B2056690190EB0205D5102330001D4300F0E7
S1131B30B1FDA061104B1D420FD03000A16900F02F
S1131B40B2FD002806DA80230120E26840421343F4
S1131B50E3600FE0094B1D40E5603A003000019955
S1131B6000F0A7FD4300A2695B08FB1AD318A36128
S1131B700028E8D1FEBDC04610000200EFFFFDFFC3
S1131B802022C36810B59343C3608269836A04004A
S1131B909A420CD0FFF792FFE268074B1A401023D9
S1131BA01343E360A36AA3612369E3622360E368E8
S1131BB0024A1340E36010BDEFCFFFFFBFBFFFFF3A
S1131BC0F0B51D008BB002900391039B14005A00E2
S1131BD02B000399520D4B40DB0FDB070693002AC1
S1131BE007D053498A4204D06B005B0D01D08B426D
S1131BF011D1039B4F495B008B4200D886E04E4ACB
S1131C00934205D16B009B184C4A934200D889E05B
S1131C1000204B496FE0D3180793039B620D1F0309
S1131C2080233F0B5B031F43EB0213438022120606
S1131C301A43002338001900089200F0FCFC00232A
S1131C40E2020490059138001900150000F0F3FC3D
S1131C500023009101930099019A049B059C5B1851
S1131C605441002704930594029B06001A0028009F
S1131C703B00390000F0DFFC0C003B003900029A05
S1131C800990089800F0D7FC2200049C059D3B00B5
S1131C9080185941801979410A00802112196B4139
S1131CA0099C4903A7080743264C079804198B424B
S1131CB00CD2254904008C461000190080185941A3
S1131CC0FD0F05432A000B0064447F000021F80F38
S1131CD080185941802203001206974203D1012340
S1131CE002009A431300194A944206D81800069A2F
S1131CF024050A43A1180BB0F0BD002C03DB069A9F
S1131D00134B1A43069200200699F4E76A008A42AC
S1131D10F9D909498A4200D07AE780229203934292
S1131D2000D275E70A4B069A00201A431100E2E735
S1131D30FF070000FFFFDFFF0000E0FF0000C0FF1F
S1131D400000F87F01FCFFFF00FCFFFFFD0700001F
S1131D500000F07FF0B587B00090019102920393E8
S1131D60019B019A5F00039B7F0D53400593002F55
S1131D7008D04A4DAF4205D0039B5C00640D01D0EE
S1131D80AC4207D1019B464E5D00B54265D90020A7
S1131D9044494CE0019B3F1BD902009B029A5C0D15
S1131DA080231B069C46009B2143DC0263460B43B5
S1131DB0510D62461D00039BDB020B431343029A41
S1131DC0D202AB4202D834D1A24232D936490126DA
S1131DD050087F18D907084335225908B446002310
S1131DE05B00A94206D801D1A04203D86646241A52
S1131DF08D41334324196D41212A24D0013A002A0C
S1131E00EED1A94208D801D1A04205D801335A42E3
S1131E105A4104998A180492059A2449D20FD20788
S1131E208F4213D818003F05BF18049AB91807B099
S1131E30F0BDE9078C4666466008690806430D0054
S1131E4034001B49C3E720220493C9E7002F01DBB8
S1131E50184B1A4300201100E9E7039B5C00B442CD
S1131E6000D994E7019A134380225B0092039342C2
S1131E7000D28CE7059B0020DB0FDB0795420BD3D8
S1131E80944203D20B4A00201A43E4E7B442F9D146
S1131E900020A54200D17BE71900C8E7FF07000036
S1131EA00000E0FF0000F87FFD030000FD070000D4
S1131EB0FE0300000000F07FF7B514001D001A00B7
S1131EC08C46070026004B4007D580273F0622009A
S1131ED0EB1900F0DBF803B0F0BD8D4203D8844267
S1131EE00BD38D4209D1802212069A180B0053405D
S1131EF09C463B0037001E006A406346110D1B0DD3
S1131F000191581A5D4C5E491940A14206D16346BD
S1131F101B0300D1ADE000205A49DCE7884204D11C
S1131F20002832D061463800D5E780256146120387
S1131F306D030C03110B2A00240B224329431F2891
S1131F4057D80C00C440121B3400C4400198203000
S1131F50C01A81400D003100254381407D1BAF42F2
S1131F6016D2013A002901D04942013DC020400364
S1131F7002425BD15000EA0F02436800CD0F11000A
S1131F8005432943023B002910D100200021A2E788
S1131F900029EBD0013D681C444260414942121AB9
S1131FA0E4E7290E12020A432D02083B510BF8D034
S1131FB0510C04D1290F12010A432D01043BD10C09
S1131FC004D1A90F92000A43AD00023B110D04D1C4
S1131FD0E90F52000A436D00013B6046D90AC40F61
S1131FE0A14203D11B059918280074E70020E107DA
S1131FF071E7352830D80D0020242038C540241A34
S1132000A14034007D1BAF42BF41C4407F42D21B7C
S11320102143360608D0FF200143013D681C444299
S113202060414942121A01E00029F6D1D00209D4D4
S1132030013B5C050DD0E80F520002436D00C80F50
S113204005434900104C1440002907DB1B051919EE
S1132050CAE7200019053EE73D00F7E701356A426B
S11320606A41A418802212069142EFD101229543BD
S1132070ECE7002800D055E74DE7C046FF07000015
S1132080FFF7FFFF0000F87FFFFFEFFFF0B51F0031
S113209016003D0085B00C0003003A000291039045
S11320A001964D4007D58024240632003B19FFF7E2
S11320B003FF05B0F0BD8F4204D93C000399029A96
S11320C0019B01914149424D200D170DC61B014052
S11320D0A94204D1220306D000203E49E9E78E42FA
S11320E004D1002E6DD021001800E2E780252103E1
S11320F012036D03090B120B29432A431F2E1ED80A
S11321001500F5402037AC46019D3F1AF540BA4012
S11321102A43019D9B18BD4061442E009A422AD94E
S113212001315D1C8A022CD40138002E0ADA0133F5
S113213080221206964205D10122934302E0352EF5
S113214005D901380005451829001800B1E7170022
S1132150203EF740DB19BB42BF41019D7F42C919B4
S11321602027F540BF1BBA402E001643019A1506DE
S113217001D0FF2216438A021BD55D1C6B426B41C2
S1132180C918002E01D102239D43240D4B082405B8
S1132190E418114B62009A4207D86D08C907294315
S11321A023000A001000190083E701300022030510
S11321B0F8E70138002EC5DA01335A425A4189182A
S11321C0B6E7E40F3000E10773E7C046FFF7FFFF0F
S11321D0FF0700000000F87FFFFFDFFF0B00400D4A
S11321E0C90201438020000608430D4910B51C0DA7
S11321F0091BC840FF2912D9E024E40040422142CF
S11322000DD08021C90508001840194207D0054C9B
S113221000205900A14202D8D80F034BC01810BDAA
S11322201E0400000000E0FFFFFFFF7F0B4B0A0DC0
S113223030B59B1AFF2B07D8400DCA0202438020F9
S113224000061043D84030BD80220020044BD20544
S1132250CB189A4240414042F5E7C0461E040000B4
S1132260000010C0F7B500900191009F019D380057
S11322706900084384460AD15900114301300029FA
S113228004D060469D4201D150425041FEBD002021
S11322909D42FBD19742F9D1014B8B424041F5E776
S11322A00000E0FFF7B5040018001A4F0D00BC460B
S11322B008430DD400205F00674508D801309D42D3
S11322C005D300209D4202D1944280414042FEBD8C
S11322D068000090009F00206745F8D858000190DE
S11322E0019F00206745F2D8009F2743874206D10B
S11322F001991143081EEAD0AB428041E6E7012070
S11323009D42E4D800209D42E1D1A2429241504234
S1132310DDE7C0460000E0FFF7B5009001910199A8
S11323201D000B0014000020124F4E002B430CD450
S1132330BE4209D80130A94206D80020A94203D1DF
S1132340009B9C4280414042FEBDBE42FCD86B00D3
S1132350BB42F9D80098034323433343181EF3D0F8
S11323600120A942F0D30020A942EDD1009BA34251
S11323708041E8E70000E0FFF0B585B000900191EE
S11323801D000199009B14009C460B00154E0394FC
S11323902B430FD400206B00B34209D80130A9426B
S11323A006D30020A94203D1230062469342404150
S11323B005B0F0BD019B00205F00B742F8D86B0068
S11323C0B342F5D80130A942F2D803D100206346C4
S11323D0039AEBE7009A134323433B435842584183
S11323E0E6E7C0460000E0FFF0B585B0009001913B
S11323F01D000199009B140003930B000020134F50
S11324004E002B430DD4BE4209D80130A94206D850
S11324100020A94203D12200039B9342404105B00E
S1132420F0BDBE42FBD86B00BB42F8D80130A942D4
S1132430F5D303D100202300039AEEE7009A134357
S11324402343334358425841E9E7C0460000E0FFC4
S113245080B584B000AF0200FB1D1A70FB1D1B7811
S11324602F2B0AD9FB1D1B78392B06D80F23FB18F9
S1132470FA1D1278303A1A7012E0FB1D1B78402BBB
S11324800AD9FB1D1B78462B06D80F23FB18FA1D0F
S11324901278373A1A7003E00F23FB18FF221A70E0
S11324A00F23FB181B781800BD4604B080BD80B50F
S11324B000AF00F00FF8C046BD4680BD80B500AF48
S11324C0FEF72CFDFEF712FD6020FDF7E7FFC04686
S11324D0BD4680BD80B500AFFEF70EFBFFF7EEFFF3
S11324E0FEF7BAFAC046BD4680BD80B500AFC0460F
S11324F0BD4680BD10B5FEF7C7FDFFF7D8FF10BD80
S113250010B500F0AFF810BD10B5002811D080212F
S11325100C38490501608268002A0AD013688B428E
S113252007D14368546803331B194360936883607D
S1132530F1E710BD10B50400FFF762FA01002000B6
S113254000F0AEF810BD03000B4321D4002931D0B4
S11325500122D207030901E0090112099942FBD9BA
S1132560430801E0490052089942FBD900E04908B8
S1132570401A07D35241FAD301461046704749081E
S11325804018F7D29218FAD3401801461046704703
S1132590CB0F00D04942021000D54042534008B549
S11325A0FFF7D4FF0CBC521000D34042002A00D5E0
S11325B049421847F446002000F001F8604770478C
S11325C010B5002828D0030C12D10004030E13D137
S11325D00002030F14D10001830F15D180000028DD
S11325E016DB4000C412631842051000190010BD28
S11325F080235B04C918E9E780231B04C918E8E7B2
S11326008023DB03C918E7E780239B03C918E6E7A7
S113261080235B03C918E5E700200021E7E7C30F27
S113262010B5D907002B00D040428023DB05C91820
S1132630FFF7C6FF10BD10B543435143C918040C3E
S1132640130C5C43091992B2040C544380B2434303
S113265050432204240C801861411A041B0C801876
S1132660594110BD8446043A09D3830707D10906AA
S11326700B0A19430B0C1943043A02C0FCD204326E
S113268003D001700130013AFBD16046704701204C
S11326904042704701204042704701204042704749
S11326A001204042704701204042704701204042CF
S11326B0704710007047FFFF00009C17239C8EBCDE
S11326C0000050896510713C000070B0467C6C3C81
S11326D0000004EE771574BC000046054C32863CBD
S11326E00000F01109DA7A3C0000C8B677B0893CE2
S11326F00000DC4A2EA6883C000000000000F03FE9
S1132700DA90A4A2AFA4EE3F87A4FBDC1858ED3FF7
S11327109C5285DD9B19EC3FADD35A999FE8EA3F63
S113272090F0A38291C4E93FDBA02A42E5ACE83FE4
S11327308701EB7314A1E73FCD3B7F669EA0E63F84
S1132740295448DD07ABE53F272A36D5DABFE43FF5
S11327502234124CA6DEE33F15B7310AFE06E33FEE
S11327603862756E7A38E23F7B517D3CB872E13F46
S11327700F89F96C58B5E03F000000000000E03F0D
S11327809A060000A4060000AE060000B806000089
S1132790C2060000CC060000D6060000E0060000D9
S11327A0EA060000F40600001008000038080000E3
S11327B098080000F608000032090000B60900007D
S11327C0260A0000260A000080251000B40B000031
S11327D0C80B0000DC0B0000F00B0000040C000030
S11327E0180C00002C0C0000400C0000D60C00005B
S10B27F00300000072007700F1
S90300D527
