S02B0000463A5C4B4C343650726F6A6563745C4D4B4C34365A345F426F6F744C6F616465725C776F726B73709C
S21401000000600020D5000100430101004501010008
S21401001000000000000000000000000000000000DA
S2140100200000000000000000000000004701010081
S214010030000000000000000049010100B9100100A5
S2140100404F010100570101005F0101006701010036
S2140100506F010100770101007F01010087010100A6
S2140100608F010100970101009F010100A701010016
S214010070AF010100B7010100BF010100D106010077
S214010080CF010100D7010100DF010100E7010100F6
S214010090EF010100F7010100FF0101000702010065
S2140100A00F020100170201001F02010027020100D2
S2140100B02F020100370201003F020100590301002F
S2140100C02828010080E0FF1F0800000088E0FF1FCD
S2140100D0C800000010B572B601F0E0F90D4B07E05C
S2140100E0186859681C000C349A6800F019F8230047
S2140100F0094A9342F4D306E018681C00083459688C
S21401010000F017F82300054A9342F5D362B602F0D1
S21401011070FAFEE7C0000100CC000100D400010027
S21401012010B5002302E010C810C104339342FAD37D
S21401013010BD002302E0002204C004338B42FAD330
S2140101407047FEE7FEE7FEE7FEE7FEE7FEE710B5CF
S214010150FFF7FCFF10BD10B5FFF7F8FF10BD10B597
S214010160FFF7F4FF10BD10B5FFF7F0FF10BD10B597
S214010170FFF7ECFF10BD10B5FFF7E8FF10BD10B597
S214010180FFF7E4FF10BD10B5FFF7E0FF10BD10B597
S214010190FFF7DCFF10BD10B5FFF7D8FF10BD10B597
S2140101A0FFF7D4FF10BD10B5FFF7D0FF10BD10B597
S2140101B0FFF7CCFF10BD10B5FFF7C8FF10BD10B597
S2140101C0FFF7C4FF10BD10B5FFF7C0FF10BD10B597
S2140101D0FFF7BCFF10BD10B5FFF7B8FF10BD10B597
S2140101E0FFF7B4FF10BD10B5FFF7B0FF10BD10B597
S2140101F0FFF7ACFF10BD10B5FFF7A8FF10BD10B597
S214010200FFF7A4FF10BD10B5FFF7A0FF10BD10B596
S214010210FFF79CFF10BD10B5FFF798FF10BD10B596
S214010220FFF794FF10BD10B5FFF790FF10BD10B596
S214010230FFF78CFF10BD10B5FFF788FF10BD10B596
S214010240FFF784FF10BD10B5FFF780FF10BDFFFF5D
S21401025080B500AF0F4B00221A7000F019FB0D4B52
S2140102601B78032B11D0FADC022B0BD0F7DC002B0A
S21401027002D0012B03D0F2E702F055F808E000F0B7
S21401028023FB05E000F052FB02E000F091FBC046C4
S214010290E5E7C0464BE1FF1F90B585B000AF0220F1
S2140102A000F09CFC08243B19114A03CA03C33B19FE
S2140102B0180000F08FFE3B19180000F0B7FE1F2053
S2140102C000F0F0FD3B00180008231A00002102F0A0
S2140102D096F93B00074A1A603B0003221A713B005D
S2140102E0180002F028F8C046BD4605B090BDC046CD
S2140102F0B827010080F00F4090B585B000AF02200E
S21401030000F06CFC08243B19114A03CA03C33B19CD
S214010310180000F05FFE3B19180000F087FE1F2052
S21401032000F0C0FD3B00180008231A00002102F06F
S21401033066F93B00074A1A603B000C221A713B0023
S214010340180001F0F8FFC046BD4605B090BDC04696
S214010350C027010080F00F4080B500AF124B03218B
S214010360180002F08FF80300012B08D10F4B1B6811
S214010370002098470C4B0321180002F06BF80A4B3B
S2140103800C21180002F07EF80300012B08D1064B61
S2140103900C21180002F05EF8044B1B6801209847F8
S2140103A0C046BD4680BDC04600B0044088E0FF1F81
S2140103B080B582B000AF7860034B7A681A60C04699
S2140103C0BD4602B080BDC04688E0FF1F80B582B042
S2140103D000AF0200BB1D1A80034BBA1D12881A809B
S2140103E0C046BD4602B080BD48E1FF1F90B585B04E
S2140103F000AF032000F0F2FB08243B191800082385
S2140104001A00002102F0FBF821007B180B4A1A6043
S2140104107B1805221A717B1801229A717B18180025
S21401042000F0D8FD3B00064A03CA03C33B00180090
S21401043001F081FFC046BD4605B090BD00C0044036
S214010440C827010090B585B000AF042000F0C6FBB8
S21401045008243B19180008231A00002102F0CFF8DF
S21401046021007B180B4A1A607B181D221A717B1813
S21401047001229A717B18180000F0ACFD3B00064A79
S21401048003CA03C33B00180001F055FFC046BD4632
S21401049005B090BD00D00440D027010090B585B0CE
S2140104A000AF042000F09AFB08243B19180008232B
S2140104B01A00002102F0A3F821007B18124A1A60E4
S2140104C07B181D221A717B1803229A717B1818005B
S2140104D000F080FD072000F081FB3B000B4A03CAB9
S2140104E003C33B00180000F077FEFA239B00084880
S2140104F01A00022100F0CEFE064B180000F01EF98D
S214010500C046BD4605B090BD00D00440D8270100C6
S21401051000800340CD03010080B500AF034B0521E9
S214010520180001F068FFC046BD4680BDC0F00F4010
S21401053080B500AF034B1D21180001F05CFFC046DB
S214010540BD4680BD00F10F4080B500AF034B0521CD
S214010550180001F026FFC046BD4680BDC0F00F4022
S21401056080B500AF034B1D21180001F01AFFC046ED
S214010570BD4680BD00F10F4080B500AF034B05219D
S214010580180001F023FFC046BD4680BDC0F00F40F5
S21401059080B500AF034B1D21180001F017FFC046C0
S2140105A0BD4680BD00F10F4090B583B000AF174B3C
S2140105B01B88180000F0D0F8031C7B60786801F0F7
S2140105C06FFD134A134B01F0C3FB02000B00100032
S2140105D019000022104B01F0F1FA02000B00FC1C7E
S2140105E01000190001F066FC03002370FB1C1B7849
S2140105F09BB20A481A00022101F0BEFF074B180001
S21401060000F002FEC046BD4603B090BD48E1FF1FA4
S2140106106666666666660A400000594000800340CA
S21401062080B500AF034B180000F014FEC046BD466F
S21401063080BDC0460080034090B587B000AF04205F
S21401064000F0CCFA10243B19180008231A000021E8
S21401065001F0D5FF21007B181A4A1A607B18162272
S2140106601A717B18180000F0B5FC052000F0B6FAE8
S2140106703B1D154A03CA03C312781A703B1D1800A6
S21401068000F0F4F93B1D5A78104B1A700F2000F059
S21401069009FC062000F0A2FA3B0000221A700B4B60
S2140106A01B78012B0AD13B00180000F011FC0A212F
S2140106B0002000F027FC002000F0B2FBC046BD463B
S2140106C007B090BD00D00440E02701004AE1FF1FBB
S2140106D080B582B000AF0D4A86235B00D358012255
S2140106E0134004D0094A86235B000121D150084BF0
S2140106F01A69BB1D1A80074B1B68BA1D12881000A9
S2140107009847C046BD4602B080BDC0460070034053
S21401071000B0034080E0FF1F80B500AF064B1B789A
S214010720002B05D0012B04D1002000F01DFC00E0B9
S214010730C046C046BD4680BD4AE1FF1F80B582B0B7
S21401074000AF7860034B7A681A60C046BD4602B0B7
S21401075080BDC04680E0FF1F80B584B000AF0200B8
S214010760BB1D1A800B4BFB60BB1D1B88180001F0DC
S214010770D6FF031C0849181C01F020FC031C191C99
S214010780F86801F0B3FB031CBB60BB68181CBD46D0
S21401079004B080BD3333534000FF7F4780B582B03D
S2140107A000AF082000F01AFA3B1D054A12681A60CD
S2140107B03B1D180000F09CFDC046BD4602B080BD42
S2140107C0EC27010080B582B000AF0200FB1D1A7055
S2140107D0FB1D1B78002B02D0012B30D050E02A4B9A
S2140107E01B78032B1BD048DC022B0CD045DC002BDE
S2140107F021D0012B41D1254B1B78002B1DD1234B3A
S21401080001221A7019E0214B1B78002B03D11F4BD4
S21401081002221A7012E01D4B00221A700EE01B4BCA
S2140108201B78002B03D1194B03221A7006E0174BD5
S21401083000221A7002E0C0461FE0C0461DE0124BBF
S2140108401B78032B14D01ADC022B0DD017DC002BDF
S21401085002D0012B04D012E00B4B01221A700BE0E0
S214010860094B02221A7007E0074B03221A7003E0B5
S214010870054B00221A70C04601E0C04600E0C046A3
S214010880C046BD4602B080BD4BE1FF1F4CE1FF1FD5
S21401089080B500AF002001F023FC012001F020FC10
S2140108A0002001F034FC012001F031FC044B18005B
S2140108B0FFF77EFD034B00221A70C046BD4680BD81
S2140108C0C50701004BE1FF1F80B500AF002001F016
S2140108D056FC012001F01BFCC8220121012001F079
S2140108E087FC104B00221A7013E00E4B1B78002B6E
S2140108F00ED0012B00D00CE0002001F025FCC82210
S2140109000321012001F074FC064B00221A7000E05E
S214010910C046054B1B78012BE7D0C046C046BD46F6
S21401092080BDC0464CE1FF1F4BE1FF1F80B500AF05
S214010930002001F024FC012001F0E9FBC82202217D
S214010940012001F055FC022001F0E1FB002001F03E
S2140109509DFCFFF7E1FE144B00221A701CE0124BBF
S2140109601B78002B02D0022B07D015E0002001F0E7
S21401097006FC022001F003FC0EE0002001F0E4FB7F
S214010980022001F018FC084B1B78002B03D0064B05
S21401099002221A7000E0C046044B1B78022BDED000
S2140109A0C046C046BD4680BD4CE1FF1F4BE1FF1F60
S2140109B090B585B000AF3B00294A13CA13C3002087
S2140109C001F074FC0F23FB1801221A70002001F0BD
S2140109D0D6FB012001F09BFBC8220321012001F078
S2140109E007FC204B00221A7031E01E4B1B78002BAF
S2140109F007D00F217A18791809781170032B0AD0BD
S214010A0025E0002001F0BBFB01F060FC0F23FB1882
S214010A1001221A701BE0002001F096FB09E03B0062
S214010A20180001F05AFC0F217B181A787B18013246
S214010A301A700F23FB181B78012BF0D9094B1B7872
S214010A40002B03D0074B03221A7000E0C046064B6A
S214010A501B78032BC9D0C046C046BD4605B090BD25
S214010A60F02701004CE1FF1F4BE1FF1F80B582B06C
S214010A7000AF7860584B1A6A574B40218A431A6276
S214010A80554B196A7B685B789B0140221A40524B92
S214010A900A431A62504A7B681B789B009B584E4952
S214010AA07A6812781000402293431A0083005A5045
S214010AB0494A7B681B789B009A587B689B789B0108
S214010AC040210B404448796809781A438B001A5034
S214010AD0414B9A68404B03218A439A603E4B996882
S214010AE07B68DB781A0003231A403B4B0A439A6063
S214010AF0394B1A6A384B03218A431A62364B196AF4
S214010B007B681B791A0003231A40334B0A431A6287
S214010B10314B5A6A304B08218A435A622E4B5B6A24
S214010B207A685279D2001A402B4B08210A405A6241
S214010B30294B9A68284B0C218A439A60264B996860
S214010B407B689B799B000C221A40234B0A439A60D0
S214010B50214A7B681B789B009B581F497A6812784C
S214010B601000202293431A0083005A501A4A7B68C9
S214010B701B789B009A587B68DB795B0120210B4030
S214010B801548796809781A438B001A507B685B7898
S214010B90012B1DD1104A7B681B789B009B580E4980
S214010BA07A68127810001F2293431A0083005A5065
S214010BB0094A7B681B789B009A587B681B7A190048
S214010BC01F230B400448796809781A438B001A5092
S214010BD0C046BD4602B080BD00B0034080B582B0BD
S214010BE000AF0200FB1D1A70FB1D1B78082B00D9F5
S214010BF0E0E09A00714BD3181B689F46704A714B10
S214010C00D3586F498022920013436E4A8B50D1E02D
S214010C106B4A6C4BD3586A498022D2001343694A07
S214010C208B50C7E0664A674BD3586549802212014C
S214010C301343644A8B50BDE0614A624BD358604906
S214010C408022520113435F4A8B50B3E05C4A5D4BEE
S214010C50D3585B498022920113435A4A8B50A9E02C
S214010C60574A594BD3585649802212051343564AC0
S214010C708B509FE0524A544BD3585149802212045C
S214010C801343514A8B5095E0504B1B78DBB24F4AC9
S214010C9002218B43DBB213704C4B1B78DBB24B4A01
S214010CA002210B43DBB21370454A474BD3584449E4
S214010CB0802252041343444A8B50414A444BD35832
S214010CC03F49444A1340424A8B503D4A404BD35811
S214010CD03B49C022920413433D4A8B503B4B1B7A3F
S214010CE0DBB23A4A0E218B43DBB21372374B1B7AC7
S214010CF0DBB2364A04210B43DBB21372334B5B780B
S214010D00DBB2324A01218B43DBB253702F4B5B7847
S214010D10DBB22E4A01210B43DBB253704AE02B4B68
S214010D201B78DBB2294A02218B43DBB21370274BB7
S214010D301B78DBB2254A02210B43DBB21370204A33
S214010D40254BD3581E498022D2001343224A8B508A
S214010D501B4A1F4BD3581A49204A13401C4A8B5032
S214010D60174A1B4BD3581649C02212051343184A7B
S214010D708B50164B1B7ADBB2144A0E218B43DBB227
S214010D801372124B1B7ADBB2104A04210B43DBB2FF
S214010D9013720E4B5B78DBB20C4A01218B43DBB23C
S214010DA053700A4B5B78DBB2084A01210B43DBB276
S214010DB05370C046C046BD4602B080BDFC27010048
S214010DC000700440381000003C100000004006404F
S214010DD004100000FFFFFFFC34100000FFFFFFF3CC
S214010DE080B582B000AF00F067FB0A4B1B687B60E2
S214010DF0094A0A4BD3581B0C07221340190078687E
S214010E0001F023FC03003B603B681800BD4602B0BE
S214010E1080BDC04684E0FF1F0070044044100000FF
S214010E2080B582B000AF0200FB1D1A70FB1D1B7857
S214010E30002B2ED1194A1A4BD358184980229343B6
S214010E40174A8B50154A164BD35814491022934310
S214010E50134A8B50114A124BD35810490F22934311
S214010E600F4A8B500D4A0E4BD3580C498022134320
S214010E700B4A8B50094A0949094BD358084A8B50EB
S214010E80064A074BD358054904221343044A8B509C
S214010E90C046C046BD4602B080BDC0460070044094
S214010EA01810000080B582B000AF0200FB1D1A705A
S214010EB0064B1968FB1D1B7801229A40034B0A4317
S214010EC01A60C046BD4602B080BDC04600E100E0E3
S214010ED080B582B000AF7860094B1A68084B0221D2
S214010EE08A431A60064B19687B681B785B000222EE
S214010EF01A40034B0A431A60C046BD4602B080BD85
S214010F000070034080B584B000AF0200FB1D1A706C
S214010F103B1D0A1C1A803B1D1B88180001F080FA35
S214010F200300FB600F4AFB1D1B7810331B019B5807
S214010F300C4AFB1D1B7810331B0100219950094AEE
S214010F40FB1D1B7810331B0199580648FB1D1B78A7
S214010F50FA680A4310331B011A50C046BD4604B056
S214010F6080BDC0460070034080B582B000AF02006D
S214010F70FB1D1A701649FB1D1A7884235B001201AB
S214010F808A18D3181B681248FA1D11780122934358
S214010F901A0084235B0009014118CB181A600C491A
S214010FA0FB1D1A7884235B0012018A18D3181B686C
S214010FB00748FA1D117801221A4384235B000901B0
S214010FC04118CB181A60C046BD4602B080BDC04667
S214010FD00070034080B582B000AF78607B681B6804
S214010FE07A6812799200D2587B681B687968097909
S214010FF008000D4911408200D1507B681B687A6851
S21401100012799200D1587B689B791A02E023DB00A3
S2140110101A407B681B687868007911438200D150BA
S214011020C046BD4602B080BDFFF8FFFF90B583B055
S21401103000AF78607B685B79002B36D07B681B68D5
S2140110407A6812799200D358032293431A007B6878
S2140110505B791C007B681B68796809790800224364
S21401106011008200D1507B681B687A681279920061
S214011070D2587B681B687968097908000D491140C8
S2140110808200D1507B681B687A6812799200D15829
S2140110907B68DB791A04F0231B031A407B681B6804
S2140110A07868007911438200D150C046BD4603B02E
S2140110B090BDC046FFFFF0FF80B500AF024B1B6836
S2140110C09847C046BD4680BD8CE0FF1F80B582B004
S2140110D000AF3B1D1870084B1A68074B04218A4362
S2140110E01A60054B1A68044B04210A431A60C0466D
S2140110F0BD4602B080BDC04610E000E080B584B0B9
S21401110000AF0200BB1D1A8000F0D6F90F4B1B681A
S214011110FB60BB1D1B88FA685343FA229100180036
S21401112001F093FA0300BB60094B5A68084B120E94
S21401113012065A60064B5968BB685A1E044B0A438E
S2140111405A60C046BD4604B080BDC04684E0FF1F5D
S21401115010E000E080B500AF044B1A68034B012194
S2140111600A431A60C046BD4680BDC04610E000E096
S21401117080B500AF044B1A68034B01218A431A60FD
S214011180C046BD4680BDC04610E000E080B582B0D6
S21401119000AFFB1D00221A70074B1A6880235B0202
S2140111A0134002D0FB1D01221A70FB1D1B7818008C
S2140111B0BD4602B080BDC04610E000E080B500AF7D
S2140111C0044B9A68034B01210A439A60C046BD4608
S2140111D080BDC04610E000E080B582B000AF786008
S2140111E07B681A79074B1A707B6818687B6859798F
S2140111F07B689B791A0001F063F9C046BD4602B0D0
S21401120080BDC0464DE1FF1F80B582B000AF78605B
S2140112100F4B1B78022B13D015DC002B12D0012BA1
S21401122000D010E07B681B68182293431A007B6885
S2140112301A607B681B6808221A437B681A6002E002
S214011240C04600E0C046C046BD4602B080BDC046AE
S2140112504DE1FF1F80B582B000AF78600C4B1B7864
S214011260022B0DD00FDC002B0CD0012B00D00AE096
S2140112707B681B68182293431A007B681A6002E099
S214011280C04600E0C046C046BD4602B080BDC0466E
S2140112904DE1FF1F90B585B000AF786008001100E2
S2140112A0FB1C021C1A703B000A1C1A800F4BFB60C9
S2140112B07B685B681B0C1A047B685A607B689B68BA
S2140112C01B0C1C043B001B881900F86801F0BDF9D3
S2140112D003009BB2013B1B041B0C22001A437B68D4
S2140112E09A60C046BD4605B090BDC04640420F005C
S2140112F090B589B000AF7860454BDB78DBB2444AE5
S2140113000C218B43DBB2D370414B9B7ADBB21F229D
S2140113109343DAB27B689B78013BDBB23C491343CB
S214011320DBB28B727B689B781A007B681B88534301
S2140113301900384801F089F903001A001E217B18AC
S2140113401A807B181B881B0A9AB21D203B181A703C
S2140113501C243B197A1812881A702D4B1B78DBB2A5
S2140113602B4A1F218B43DBB21370294B1B78DAB251
S2140113703B181B781F210B40DBB225491343DBB218
S2140113800B70234B5B78224B00225A70204B5B7804
S214011390DAB21F493B191B781343DBB24B700020AE
S2140113A0FFF71CFC14243B19180008231A0000211F
S2140113B001F025F921007B18174A1A607B180122D3
S2140113C01A717B1803225A717B1802229A717B18B4
S2140113D01800FFF7FFFD0C243B19180008231A001C
S2140113E0002101F00CF921007B180B4A1A607B18CA
S2140113F002221A717B1803225A717B1802229A71F3
S2140114007B181800FFF7E6FDC046BD4609B090BD43
S21401141000A0064040420F000090044080B500AF97
S214011420094BDB78DBB2084A08218B43DBB2D37069
S214011430054BDB78DBB2044A08210B43DBB2D370E1
S214011440C046BD4680BDC04600A0064080B500AF80
S214011450054BDB78DBB2044A08218B43DBB2D37041
S214011460C046BD4680BDC04600A0064080B582B0DD
S21401147000AF0200FB1D1A70C046074B1B79DBB29A
S2140114805BB2002BF9DA044AFB1D1B78D371C04608
S214011490BD4602B080BDC04600A0064080B500AF84
S2140114A0044A88235B010021D15001F09DF8C04613
S2140114B0BD4680BD0070044080B582B000AF894B48
S2140114C01B78DBB21A00C023134000D0C3E0854B63
S2140114D05B79DBB21A004023134000D099E0814BC0
S2140114E01B78DBB21A00042313403AD17E4B7B6093
S2140114F07C4B5B78DBB21A00302313401ED0794B4D
S2140115001B78DBB21A0038231340302B06D0382B59
S21401151009D1BB1CC022D2001A8019E0BB1CA02234
S214011520D2001A8014E06F4B1B78DBB2DB0807226F
S214011530134020229A40BB1C1A8009E0694B1B7895
S214011540DBB2DB080722134001229A40BB1C1A803B
S214011550BB1C1B881900786801F077F803007B60D4
S21401156002E080231B027B605E4BDB78DBB21A0055
S214011570E0231340E02B47D000D99DE0C02B3ED09E
S21401158000D999E0A02B34D000D995E0802B2AD041
S21401159000D991E0602B1FD000D98DE0402B14D0EC
S2140115A000D989E0002B02D0202B07D084E07A688E
S2140115B013009B009B18DB017B607EE07A681300BA
S2140115C09B009B181B027B6077E07A6813001B0167
S2140115D09B1ADB017B6070E07A6813009B009B1806
S2140115E05B027B6069E07B68B722920053437B60B5
S2140115F063E07B68B722D20053437B605DE07B6883
S2140116003A4A53437B6058E07B68394A53437B60D0
S21401161053E0344B1B79DBB21A001F2313409AB2F6
S214011620BB1C01321A80BB1C1B8819002E4801F016
S2140116300CF803007B602B4B5B79DBB21A001F238F
S21401164013409AB2BB1C18321A80BB1C1A887B68DE
S21401165053437B6031E0234B1B78DBB21A00C02377
S2140116601340402B1DD11F4B5B78DBB21A000123C0
S214011670134003D180231B027B601EE0194B1B7AAB
S214011680DBB25B080722134001229A40BB1C1A807A
S214011690BB1C1B881900174800F0D7FF03007B60AE
S2140116A00BE0104B1B78DBB21A00C0231340802BD3
S2140116B013D10D4B7B6000E0C0460F4A0F4BD35849
S2140116C01B0F0F22134001331900786800F0BDFF8D
S2140116D003001A000A4B1A6000E0C046BD4602B07D
S2140116E080BDC0460040064000127A009508000002
S2140116F0710B000000093D0000700440441000001A
S21401170084E0FF1F70B5184C18492200002000F035
S2140117105DF8802380225B0000212000D20000F0CB
S2140117202FF8134C134D22002900012000F04EF82B
S214011730802380225B0000212000D20000F020F8E8
S2140117400D4B1B68022B0DDD0C4C290022000220DC
S21401175000F03CF880238022002120005B00D200AC
S21401176000F00EF870BDC04694E0FF1F242801006B
S214011770D0E0FF1F26280100202801000CE1FF1FF2
S214011780F0B5C56804000120AE070CD080208000AB
S214011790824213D08020C000824205D080204000C3
S2140117A082420BD0FF38F0BD2100012324311543BE
S2140117B0002021612160E361E560F4E7024F5E1ECF
S2140117C00120BE42F3D9EEE7FEFFFF00F7B50D009C
S2140117D001901000140000F033F82B78722B1CD007
S2140117E0772B1DD0612B26D1144A593B0220691C48
S2140117F0032784460426012508782B2813D062285F
S21401180016D0E260019A62611B0704D5022200210C
S214011810200000F063F82000FEBD00230122E5E76A
S21401182004230222E2E760463A4303430131E3E739
S21401183032432B43FAE70024EDE7C046028000005E
S214011840F0B5C56804004769066989B0AB0720D0C2
S2140118502B0716D400F022F8380000F098FF2B056D
S21401186002D5300000F0D8FE0B4BAD0DAD059D4204
S21401187007D120226846216A00F098FF684600F0EA
S214011880C2FE3C220021200000F0B9FE002009B073
S214011890F0BD01204042FAE7000080ADF8B500280F
S2140118A012D000F0E5F805002800F8BD38006043C6
S2140118B0084BC01800F0DCF8002801D001256D4265
S2140118C00134A642F2DCEFE7034B040005003C2797
S2140118D01E68F6E794E0FF1F20280100F7B543696C
S2140118E0C6680193364B04000D0000921E420BD0D1
S2140118F0019800F052FF071E06D1009B012B06D06F
S214011900022B2DD0002B06D002273800FEBD20006A
S21401191000F05AF82D18002DF6DBB30404D5236821
S214011920E26A9A4200D2E362A369AB420EDCE16A44
S21401193022688A4200D20A002169D0180091401A12
S214011940A84203DB206B1918A94228DC20231E437A
S2140119500023A562A36063601A4B1E40E660D4E7CD
S214011960019800F017FFE268002804DA8023134389
S2140119700127E360C9E7E16A2368994200D90B00B1
S214011980A1695B1821695B1A920603D5A26A934284
S21401199000DA1300834200DA0300ED18BBE7EB1A06
S2140119A0B50701D5181AA060F00703D50099521A99
S2140119B09A1A6260009AD118202321609E43CBE7D1
S2140119C003001000BFCFF7FFC16802008B0705D1E7
S2140119D0212201200E4B40421A60704720230B4003
S2140119E009030AD5002B02D0806A0138F5E793690E
S2140119F00068C0181369C01AF7E7002B01D0806A87
S214011A00EBE70368816900695B18181AE5E7C046C9
S214011A1090E0FF1F0300032110B51A000B4219D1F5
S214011A20114C1368114959189943214219D0DCB257
S214011A30511C002C0BD0FF242402911C234206D0FB
S214011A40FF2109040B40591E8B41D318D91C0130C4
S214011A50081A05E001335C1E2478002CDDD1101A2B
S214011A6010BD0432DDE7C04680808080FFFEFEFEAA
S214011A70C36870B503221E0004001640134211D03D
S214011A809B0611D5856A00F079F8E368094A2000BB
S214011A901340E36000F010F8002206002900200041
S214011AA0FFF71CFF300070BD83690568ED180369F8
S214011AB0ED1AEAE7FFCFFFFF70B50400134AE368AB
S214011AC005691A400168C06AE26082221A40022A49
S214011AD002D00120404270BDDB030CD5814200D20A
S214011AE001008D4209D10023094AA360E368E5623B
S214011AF013402560E3600020EDE722002800491B23
S214011B0000F008F80028EED0E3E7C046FFFFF7FF35
S214011B10FFFFFEFFF7B5D5680F0014005669019068
S214011B20EB0205D5102330001D4300F033FEA06103
S214011B30104B1D420FD03000A16900F034FE002882
S214011B4006DA80230120E26840421343E3600FE097
S214011B50094B1D40E5603A003000019900F029FE6E
S214011B604300A2695B08FB1AD318A3610028E8D1D9
S214011B70FEBDC04610000200EFFFFDFF2022C36835
S214011B8010B59343C3608269836A04009A420CD0FD
S214011B90FFF792FFE268074B1A4010231343E360F6
S214011BA0A36AA3612369E3622360E368024A1340E0
S214011BB0E36010BDEFCFFFFFBFBFFFFFF0B51D0015
S214011BC08BB002900391039B14005A002B000399DB
S214011BD0520D4B40DB0FDB070693002A07D0534913
S214011BE08A4204D06B005B0D01D08B4211D1039B5E
S214011BF04F495B008B4200D886E04E4A934205D19E
S214011C006B009B184C4A934200D889E000204B4950
S214011C106FE0D3180793039B620D1F0380233F0BCE
S214011C205B031F43EB021343802212061A43002371
S214011C3038001900089200F07EFD0023E2020490AD
S214011C40059138001900150000F075FD002300917C
S214011C5001930099019A049B059C5B185441002747
S214011C6004930594029B06001A0028003B003900E5
S214011C7000F061FD0C003B003900029A09900898BB
S214011C8000F059FD2200049C059D3B008018594137
S214011C90801979410A00802112196B41099C490378
S214011CA0A7080743264C079804198B420CD22549EE
S214011CB004008C461000190080185941FD0F054399
S214011CC02A000B0064447F000021F80F8018594158
S214011CD0802203001206974203D1012302009A4391
S214011CE01300194A944206D81800069A24050A4396
S214011CF0A1180BB0F0BD002C03DB069A134B1A4358
S214011D00069200200699F4E76A008A42F9D9094941
S214011D108A4200D07AE780229203934200D275E786
S214011D200A4B069A00201A431100E2E7FF0700005B
S214011D30FFFFDFFF0000E0FF0000C0FF0000F87FAC
S214011D4001FCFFFF00FCFFFFFD0700000000F07F25
S214011D50F0B587B00090019102920393019B019A1E
S214011D605F00039B7F0D53400593002F08D04A4D1B
S214011D70AF4205D0039B5C00640D01D0AC4207D195
S214011D80019B464E5D00B54265D9002044494CE0B2
S214011D90019B3F1BD902009B029A5C0D80231B0608
S214011DA09C46009B2143DC0263460B43510D624671
S214011DB01D00039BDB020B431343029AD202AB4284
S214011DC002D834D1A24232D93649012650087F18AA
S214011DD0D907084335225908B44600235B00A942B7
S214011DE006D801D1A04203D86646241A8D41334352
S214011DF024196D41212A24D0013A002AEED1A942A4
S214011E0008D801D1A04205D801335A425A41049953
S214011E108A180492059A2449D20FD2078F4213D802
S214011E2018003F05BF18049AB91807B0F0BDE907B6
S214011E308C4666466008690806430D0034001B4957
S214011E40C3E720220493C9E7002F01DB184B1A438E
S214011E5000201100E9E7039B5C00B44200D994E737
S214011E60019A134380225B009203934200D28CE7CF
S214011E70059B0020DB0FDB0795420BD3944203D270
S214011E800B4A00201A43E4E7B442F9D10020A542E8
S214011E9000D17BE71900C8E7FF0700000000E0FF5C
S214011EA00000F87FFD030000FD070000FE030000B0
S214011EB00000F07F0B4B0A0D30B59B1AFF2B07D89D
S214011EC0400DCA020243802000061043D84030BDB0
S214011ED080220020044BD205CB189A424041404252
S214011EE0F5E7C0461E040000000010C0C20D70B524
S214011EF0FF23150004001D404C401A4208D09D42A5
S214011F0006D0CE0D32001A401E4201D09A4213D19D
S214011F10FF2340001B0698423FD34AD1FF234900C6
S214011F201B06C918FE231B06994242D8FF20E40F60
S214011F30E407C00520431DE0AD18802200231206E9
S214011F400902000210430A43190000F0F4FB0600E0
S214011F500B1E10DA7F3DE00F190AC0070143EA05A0
S214011F60521880211B0609068B4207D0FD2D0ED87C
S214011F70DB0F981870BD803D4B00ECE7531C002E1C
S214011F8001D101229343FD2D01D8181CF2E7002D43
S214011F90F0DBFF23DB051843ECE74900994202D248
S214011FA0E00FC007E6E7994203D180235B0498421D
S214011FB0BCD20148DEE7C0460000C07FF0B5C50DC3
S214011FC0FF222C00030014404B40154208D09442D7
S214011FD006D0CE0D35001540164201D0954206D1E9
S214011FE0FF2544002D06AC4246D92C4838E0641B38
S214011FF080250902ED0549080202294352080139E4
S2140120002A438A422DDA7D3480253F271A26D80FA7
S214012010C0012D045200531A00D513005A00531A5A
S21401202000D513005A00531A00D513005A00531A4C
S21401203000D513005A00531A00D513005B005A1A34
S21401204000D51A0093061843F041BA432842E1D05E
S21401205052008A4200DB0130FD2C05D8E405201829
S214012060F0BD52107E34CFE7C00FC007002CF7DB5F
S214012070FF23DB051843F3E74A00AA42B5D8084315
S2140120808021400049048842AFD3D80FC0078C4254
S214012090E6D3AA42ECD19442A7D0E1E70000C07F84
S2140120A030B5C110FF240D002405254021420AD079
S2140120B0E023DB0542070B43A54209D0C8241000E4
S2140120C02406191930BDC90FCB0700201900F9E7FE
S2140120D019030A43F9D0014BF7E7C0460000F87F21
S2140120E080B582B000AF0200FB1D1A70FB1D1B7885
S2140120F0002B02D0012B03D005E0FEF7CDF802E05D
S214012100FEF7FAF8C046C046BD4602B080BD80B5AF
S21401211082B000AF0200FB1D1A70FB1D1B78022B5C
S2140121200BD00DDC002B02D0012B03D008E0FEF70C
S2140121305DF905E0FEF786F902E0FEF7AFF9C04665
S214012140C046BD4602B080BD80B582B000AF020079
S214012150FB1D1A70FB1D1B78022B0BD00BDC002B12
S21401216002D0012B03D006E0FEF7D6F903E0FEF716
S214012170DFF900E0C046C046BD4602B080BD80B56E
S21401218082B000AF0200FB1D1A70FB1D1B78022BEC
S2140121900AD00CDC002B02D0012B03D007E0FEF79F
S2140121A0D3F904E0FEF7DCF9FEF73AFAC046C0467A
S2140121B0BD4602B080BD80B582B000AF0200FB1DF7
S2140121C01A70FB1D1B78022B0BD00DDC002B02D0E6
S2140121D0012B03D008E0FEF7CFF905E0FEF7D8F9AA
S2140121E002E0FEF7E1F9C046C046BD4602B080BD3A
S2140121F090B585B000AF040008001100FB1D221C3D
S2140122001A70BB1D021C1A703B1D0A1C1A800C2179
S2140122107B1801221A707B181B78181CFEF756FFD4
S2140122203B1D1B881800FEF769FF0F23FB180022D1
S2140122301A7016E0FEF78EFFC046FEF7A7FF0300F2
S214012240012BFAD1FB1D1B781800FFF77DFFFEF767
S214012250B5FFFEF78DFF0F217B181A787B18013228
S2140122601A700F23FB181A78BB1D1B785B009A4265
S214012270E0DBC046C046BD4605B090BD80B582B025
S21401228000AF7860C046BD4602B080BD80B582B062
S21401229000AF0200FB1D1A70FB1D1B78002B01D13D
S2140122A0FEF7CAF9C046BD4602B080BD80B582B011
S2140122B000AF0200FB1D1A70FB1D1B78002B01D11D
S2140122C0FEF76CFAC046BD4602B080BD80B500AFD1
S2140122D0FFF7BCF8C046BD4680BD90B585B000AFDF
S2140122E07860FFF79BF80F23FB1800221A700DE0A9
S2140122F00F243B191B787A68D3181B781800FFF750
S214012300B5F83B191A783B1901321A700F23FB18DE
S2140123101B787A68D3181B78002BE9D1C046C046D3
S214012320BD4605B090BD80B500AF0020FFF727FF82
S214012330C046BD4680BD80B582B000AF78607B6880
S2140123409B79012B14D17B681A687B681B6812681D
S2140123501A607B681B681A687B685B7919007B6862
S2140123601B7999400B0019007B681B680A431A60A9
S2140123707B681A687B681B6852695A617B681B68B0
S2140123805A697B689B7919007B681B7999400B0019
S21401239019007B681B680A435A61C046BD4602B0F5
S2140123A080BD80B582B000AF78600A00FB1C1A7051
S2140123B07B685B68FA1C1278012191400A001A4377
S2140123C07B685A60C046BD4602B080BD80B582B00B
S2140123D000AF78600A00FB1C1A707B689B68FA1CC9
S2140123E01278012191400A001A437B689A60C04620
S2140123F0BD4602B080BD80B582B000AF78600A00ED
S214012400FB1C1A707B68DB68FA1C1278012191406C
S2140124100A001A437B68DA60C046BD4602B080BD3A
S21401242090B585B000AF0200BB1D1A80FEF7D8FC40
S2140124300300FB60BB1D1C88FB68FA229100180094
S21401244000F003F903006343BB60BB681800BD4698
S21401245005B090BD80B582B000AF78600A00FB1C65
S2140124601A70FB1C1A787B689200D358FA1C1278F3
S2140124708021490419437B689200D150C046BD466D
S21401248002B080BD80B584B000AF78600A00FB1C46
S2140124901A700F217B1800221A70FB1C1A787B68B1
S2140124A09200D25880235B04134002D07B1801228D
S2140124B01A700F23FB181B781800BD4604B080BDA8
S2140124C080B582B000AF786008001100FB1C021CCA
S2140124D01A70BB1C0A1C1A70BB1C1B78002B47D138
S2140124E07B681B68202293431A007B681A607B680E
S2140124F01A687B681A60FB1C1B787A680133DB005C
S214012500D31804331A68FB1C1B783C218A4379686C
S2140125100133DB00CB1804331A60C046FB1C1B7862
S2140125207A680133DB00D31804331B683C2213405E
S214012530F4D1FB1C1B787A680133DB00D318043313
S2140125401A68FB1C1B7828210A4379680133DB00D3
S214012550CB1804331A60C046FB1C1B787A6801331B
S214012560DB00D31804331B683C221340F4D0C0466A
S214012570C046BD4602B080BD80B584B000AF78606D
S21401258008001100FB1C021C1A703B000A1C1A8072
S2140125907B689B689BB201333A00128853436421DF
S2140125A0180000F04FF803001A000E203B181A809E
S2140125B0FB1C1B787A680133DB00D31808331B68D1
S2140125C01B0C19043B181B88013B1B041A0CFB1C33
S2140125D01B780A4379680133DB00CB1808331A608D
S2140125E0C046BD4604B080BD80B500AFC046BD46FE
S2140125F080BD10B5FFF786F8FDF72AFE10BD10B5B1
S21401260000F0B0F810BD10B50400FFF703FA0100A2
S214012610200000F0C5F810BD10B5002811D08021AB
S2140126200C38490501608268002A0AD013688B427B
S21401263007D14368546803331B194360936883606A
S214012640F1E710BD03000B4321D4002931D001224C
S214012650D207030901E0090112099942FBD943088F
S21401266001E0490052089942FBD900E04908401AA6
S21401267007D35241FAD3014610467047490840181D
S214012680F7D29218FAD34018014610467047CB0F7E
S21401269000D04942021000D54042534008B5FFF72A
S2140126A0D4FF0CBC521000D34042002A00D5494248
S2140126B01847F446002000F001F8604770470028EC
S2140126C02BD0030C15D10004030E16D10002030F04
S2140126D017D10001830F18D18000002819DB4000B4
S2140126E0803002125218000601D101239A43101CB1
S2140126F0704780231B05C918E6E78023DB04C91849
S214012700E5E780239B04C918E4E780235B04C91826
S214012710E3E780231B04C918E2E70020E8E7C30FBC
S21401272010B5D907002B00D040428023DB05C9181D
S214012730FFF7C5FF10BD10B543435143C918040C3C
S214012740130C5C43091992B2040C544380B2434300
S21401275050432204240C801861411A041B0C801873
S214012760594110BD8446043A09D3830707D10906A7
S2140127700B0A19430B0C1943043A02C0FCD204326B
S21401278003D001700130013AFBD160467047012049
S2140127904042704701204042704701204042704746
S2140127A001204042704701204042704701204042CC
S2140127B0704710007047FFFF00B004400303010A92
S2140127C000B004400C03010AC0F00F4005010100EF
S2140127D000F10F401D0101000080034001020000CE
S2140127E0000101000000030003FFFFFF8025100029
S2140127F048656C6C6F20576F726C6400FC0B0100AF
S214012800100C0100240C0100380C01004C0C0100D6
S214012810600C0100740C0100880C01001E0D010003
S20C0128200300000072007700BE
S20C0128287D22010000004001C1
S8040100D525
